{
  "_format": "hh-sol-artifact-1",
  "contractName": "Minting",
  "sourceName": "contracts/Minting.sol",
  "abi": [
    {
      "inputs": [],
      "stateMutability": "nonpayable",
      "type": "constructor"
    },
    {
      "anonymous": false,
      "inputs": [
        {
          "indexed": true,
          "internalType": "address",
          "name": "account",
          "type": "address"
        },
        {
          "indexed": true,
          "internalType": "address",
          "name": "operator",
          "type": "address"
        },
        {
          "indexed": false,
          "internalType": "bool",
          "name": "approved",
          "type": "bool"
        }
      ],
      "name": "ApprovalForAll",
      "type": "event"
    },
    {
      "anonymous": false,
      "inputs": [
        {
          "indexed": false,
          "internalType": "uint8",
          "name": "version",
          "type": "uint8"
        }
      ],
      "name": "Initialized",
      "type": "event"
    },
    {
      "anonymous": false,
      "inputs": [
        {
          "indexed": true,
          "internalType": "address",
          "name": "operator",
          "type": "address"
        },
        {
          "indexed": true,
          "internalType": "address",
          "name": "from",
          "type": "address"
        },
        {
          "indexed": true,
          "internalType": "address",
          "name": "to",
          "type": "address"
        },
        {
          "indexed": false,
          "internalType": "uint256[]",
          "name": "ids",
          "type": "uint256[]"
        },
        {
          "indexed": false,
          "internalType": "uint256[]",
          "name": "values",
          "type": "uint256[]"
        }
      ],
      "name": "TransferBatch",
      "type": "event"
    },
    {
      "anonymous": false,
      "inputs": [
        {
          "indexed": true,
          "internalType": "address",
          "name": "operator",
          "type": "address"
        },
        {
          "indexed": true,
          "internalType": "address",
          "name": "from",
          "type": "address"
        },
        {
          "indexed": true,
          "internalType": "address",
          "name": "to",
          "type": "address"
        },
        {
          "indexed": false,
          "internalType": "uint256",
          "name": "id",
          "type": "uint256"
        },
        {
          "indexed": false,
          "internalType": "uint256",
          "name": "value",
          "type": "uint256"
        }
      ],
      "name": "TransferSingle",
      "type": "event"
    },
    {
      "anonymous": false,
      "inputs": [
        {
          "indexed": false,
          "internalType": "string",
          "name": "value",
          "type": "string"
        },
        {
          "indexed": true,
          "internalType": "uint256",
          "name": "id",
          "type": "uint256"
        }
      ],
      "name": "URI",
      "type": "event"
    },
    {
      "inputs": [
        {
          "internalType": "uint256",
          "name": "",
          "type": "uint256"
        }
      ],
      "name": "NFTInfoForTokenId",
      "outputs": [
        {
          "internalType": "uint256",
          "name": "_id",
          "type": "uint256"
        },
        {
          "internalType": "uint256",
          "name": "_price",
          "type": "uint256"
        },
        {
          "internalType": "uint256",
          "name": "_priceUSD",
          "type": "uint256"
        },
        {
          "internalType": "uint256",
          "name": "_num_records",
          "type": "uint256"
        },
        {
          "internalType": "uint256",
          "name": "_purchaseValue",
          "type": "uint256"
        }
      ],
      "stateMutability": "view",
      "type": "function"
    },
    {
      "inputs": [
        {
          "internalType": "uint256",
          "name": "",
          "type": "uint256"
        }
      ],
      "name": "_tokenURI",
      "outputs": [
        {
          "internalType": "string",
          "name": "",
          "type": "string"
        }
      ],
      "stateMutability": "view",
      "type": "function"
    },
    {
      "inputs": [
        {
          "internalType": "address",
          "name": "account",
          "type": "address"
        },
        {
          "internalType": "uint256",
          "name": "id",
          "type": "uint256"
        }
      ],
      "name": "balanceOf",
      "outputs": [
        {
          "internalType": "uint256",
          "name": "",
          "type": "uint256"
        }
      ],
      "stateMutability": "view",
      "type": "function"
    },
    {
      "inputs": [
        {
          "internalType": "address[]",
          "name": "accounts",
          "type": "address[]"
        },
        {
          "internalType": "uint256[]",
          "name": "ids",
          "type": "uint256[]"
        }
      ],
      "name": "balanceOfBatch",
      "outputs": [
        {
          "internalType": "uint256[]",
          "name": "",
          "type": "uint256[]"
        }
      ],
      "stateMutability": "view",
      "type": "function"
    },
    {
      "inputs": [
        {
          "internalType": "uint256",
          "name": "",
          "type": "uint256"
        },
        {
          "internalType": "address",
          "name": "",
          "type": "address"
        }
      ],
      "name": "buyers",
      "outputs": [
        {
          "internalType": "uint256",
          "name": "",
          "type": "uint256"
        }
      ],
      "stateMutability": "view",
      "type": "function"
    },
    {
      "inputs": [],
      "name": "counter",
      "outputs": [
        {
          "internalType": "uint256",
          "name": "",
          "type": "uint256"
        }
      ],
      "stateMutability": "view",
      "type": "function"
    },
    {
      "inputs": [
        {
          "internalType": "uint256",
          "name": "_NftId",
          "type": "uint256"
        },
        {
          "internalType": "address",
          "name": "buyer_addr",
          "type": "address"
        }
      ],
      "name": "getTrackLink",
      "outputs": [
        {
          "internalType": "string",
          "name": "",
          "type": "string"
        }
      ],
      "stateMutability": "view",
      "type": "function"
    },
    {
      "inputs": [],
      "name": "initialize",
      "outputs": [],
      "stateMutability": "nonpayable",
      "type": "function"
    },
    {
      "inputs": [
        {
          "internalType": "address",
          "name": "account",
          "type": "address"
        },
        {
          "internalType": "address",
          "name": "operator",
          "type": "address"
        }
      ],
      "name": "isApprovedForAll",
      "outputs": [
        {
          "internalType": "bool",
          "name": "",
          "type": "bool"
        }
      ],
      "stateMutability": "view",
      "type": "function"
    },
    {
      "inputs": [
        {
          "internalType": "uint256",
          "name": "amount",
          "type": "uint256"
        },
        {
          "internalType": "uint256",
          "name": "price",
          "type": "uint256"
        },
        {
          "internalType": "uint256",
          "name": "priceusd",
          "type": "uint256"
        }
      ],
      "name": "mint",
      "outputs": [],
      "stateMutability": "nonpayable",
      "type": "function"
    },
    {
      "inputs": [
        {
          "internalType": "uint256",
          "name": "",
          "type": "uint256"
        },
        {
          "internalType": "address",
          "name": "",
          "type": "address"
        }
      ],
      "name": "payers",
      "outputs": [
        {
          "internalType": "uint256",
          "name": "",
          "type": "uint256"
        }
      ],
      "stateMutability": "view",
      "type": "function"
    },
    {
      "inputs": [
        {
          "internalType": "uint256",
          "name": "id",
          "type": "uint256"
        }
      ],
      "name": "purchaseRecord",
      "outputs": [],
      "stateMutability": "payable",
      "type": "function"
    },
    {
      "inputs": [
        {
          "internalType": "address",
          "name": "from",
          "type": "address"
        },
        {
          "internalType": "address",
          "name": "to",
          "type": "address"
        },
        {
          "internalType": "uint256[]",
          "name": "ids",
          "type": "uint256[]"
        },
        {
          "internalType": "uint256[]",
          "name": "amounts",
          "type": "uint256[]"
        },
        {
          "internalType": "bytes",
          "name": "data",
          "type": "bytes"
        }
      ],
      "name": "safeBatchTransferFrom",
      "outputs": [],
      "stateMutability": "nonpayable",
      "type": "function"
    },
    {
      "inputs": [
        {
          "internalType": "address",
          "name": "from",
          "type": "address"
        },
        {
          "internalType": "address",
          "name": "to",
          "type": "address"
        },
        {
          "internalType": "uint256",
          "name": "id",
          "type": "uint256"
        },
        {
          "internalType": "uint256",
          "name": "amount",
          "type": "uint256"
        },
        {
          "internalType": "bytes",
          "name": "data",
          "type": "bytes"
        }
      ],
      "name": "safeTransferFrom",
      "outputs": [],
      "stateMutability": "nonpayable",
      "type": "function"
    },
    {
      "inputs": [
        {
          "internalType": "address",
          "name": "operator",
          "type": "address"
        },
        {
          "internalType": "bool",
          "name": "approved",
          "type": "bool"
        }
      ],
      "name": "setApprovalForAll",
      "outputs": [],
      "stateMutability": "nonpayable",
      "type": "function"
    },
    {
      "inputs": [
        {
          "internalType": "address",
          "name": "buyer_addr",
          "type": "address"
        },
        {
          "internalType": "uint256",
          "name": "id",
          "type": "uint256"
        }
      ],
      "name": "setPurchased",
      "outputs": [],
      "stateMutability": "nonpayable",
      "type": "function"
    },
    {
      "inputs": [
        {
          "internalType": "string",
          "name": "newuri",
          "type": "string"
        }
      ],
      "name": "setURI",
      "outputs": [],
      "stateMutability": "nonpayable",
      "type": "function"
    },
    {
      "inputs": [
        {
          "internalType": "bytes4",
          "name": "interfaceId",
          "type": "bytes4"
        }
      ],
      "name": "supportsInterface",
      "outputs": [
        {
          "internalType": "bool",
          "name": "",
          "type": "bool"
        }
      ],
      "stateMutability": "view",
      "type": "function"
    },
    {
      "inputs": [
        {
          "internalType": "uint256",
          "name": "_id",
          "type": "uint256"
        }
      ],
      "name": "uri",
      "outputs": [
        {
          "internalType": "string",
          "name": "",
          "type": "string"
        }
      ],
      "stateMutability": "view",
      "type": "function"
    }
  ],
  "bytecode": "0x60c0604052602060808190527f68747470733a2f2f6170692e6163353569642e636f6d2f6f6e64656d616e642f60a090815262000040916097919062000055565b503480156200004e57600080fd5b5062000137565b8280546200006390620000fb565b90600052602060002090601f016020900481019282620000875760008555620000d2565b82601f10620000a257805160ff1916838001178555620000d2565b82800160010185558215620000d2579182015b82811115620000d2578251825591602001919060010190620000b5565b50620000e0929150620000e4565b5090565b5b80821115620000e05760008155600101620000e5565b600181811c908216806200011057607f821691505b6020821081036200013157634e487b7160e01b600052602260045260246000fd5b50919050565b61217f80620001476000396000f3fe6080604052600436106101135760003560e01c80633c5af02e116100a0578063a22cb46511610064578063a22cb4651461030d578063cf373dd01461032d578063da45f6891461039f578063e985e9c5146103d7578063f242432a1461042057600080fd5b80633c5af02e146102755780634e1273f41461029557806361bc221a146102c25780638129fc1c146102d85780638d17e712146102ed57600080fd5b80630e89341c116100e75780630e89341c146101bd57806319b7702b146101ea578063274270181461020a5780632eb2c2d61461021d578063388fc40c1461023d57600080fd5b8062fdd58e1461011857806301ffc9a71461014b57806302acc94b1461017b57806302fe53051461019d575b600080fd5b34801561012457600080fd5b50610138610133366004611725565b610440565b6040519081526020015b60405180910390f35b34801561015757600080fd5b5061016b610166366004611765565b6104d8565b6040519015158152602001610142565b34801561018757600080fd5b5061019b610196366004611782565b61052a565b005b3480156101a957600080fd5b5061019b6101b836600461184f565b610613565b3480156101c957600080fd5b506101dd6101d8366004611898565b610633565b6040516101429190611909565b3480156101f657600080fd5b506101dd61020536600461191c565b61070c565b61019b610218366004611898565b61081d565b34801561022957600080fd5b5061019b6102383660046119fd565b610884565b34801561024957600080fd5b5061013861025836600461191c565b609b60209081526000928352604080842090915290825290205481565b34801561028157600080fd5b5061019b610290366004611725565b6108d0565b3480156102a157600080fd5b506102b56102b0366004611aa7565b6109c0565b6040516101429190611bad565b3480156102ce57600080fd5b5061013860985481565b3480156102e457600080fd5b5061019b610aea565b3480156102f957600080fd5b506101dd610308366004611898565b610c86565b34801561031957600080fd5b5061019b610328366004611bc0565b610d20565b34801561033957600080fd5b50610377610348366004611898565b609960205260009081526040902080546001820154600283015460038401546004909401549293919290919085565b604080519586526020860194909452928401919091526060830152608082015260a001610142565b3480156103ab57600080fd5b506101386103ba36600461191c565b609c60209081526000928352604080842090915290825290205481565b3480156103e357600080fd5b5061016b6103f2366004611bfc565b6001600160a01b03918216600090815260666020908152604080832093909416825291909152205460ff1690565b34801561042c57600080fd5b5061019b61043b366004611c26565b610d2b565b60006001600160a01b0383166104b05760405162461bcd60e51b815260206004820152602a60248201527f455243313135353a2061646472657373207a65726f206973206e6f742061207660448201526930b634b21037bbb732b960b11b60648201526084015b60405180910390fd5b5060009081526065602090815260408083206001600160a01b03949094168352929052205490565b60006001600160e01b03198216636cdb3d1360e11b148061050957506001600160e01b031982166303a24d0760e21b145b8061052457506301ffc9a760e01b6001600160e01b03198316145b92915050565b609854610538906001610d70565b60988181556000828152609960205260408082209384556001909301859055815481528281206002018490559054815220600301546105779084610d70565b60988054600090815260996020526040808220600301939093558154815291822060040191909155546097906105ac90610d83565b6040516020016105bd929190611ce1565b60408051601f198184030181529181526098546000908152609a602090815291902082516105f093919290910190611670565b5061060e336098548560405180602001604052806000815250610e8c565b505050565b61061c81610fa2565b805161062f906097906020840190611670565b5050565b606060006097805461064490611c8b565b9050116106db576097805461065890611c8b565b80601f016020809104026020016040519081016040528092919081815260200182805461068490611c8b565b80156106d15780601f106106a6576101008083540402835291602001916106d1565b820191906000526020600020905b8154815290600101906020018083116106b457829003601f168201915b5050505050610524565b60976106e683610d83565b6040516020016106f7929190611ce1565b60405160208183030381529060405292915050565b6000828152609b602090815260408083206001600160a01b038516845290915290205460609061077e5760405162461bcd60e51b815260206004820152601c60248201527f55736572206469646e7420626f75676874207468697320747261636b0000000060448201526064016104a7565b6000838152609a60205260409020805461079790611c8b565b80601f01602080910402602001604051908101604052809291908181526020018280546107c390611c8b565b80156108105780601f106107e557610100808354040283529160200191610810565b820191906000526020600020905b8154815290600101906020018083116107f357829003601f168201915b5050505050905092915050565b6000818152609c6020908152604080832033845290915280822034908190559051909173821fc28a7f932fcedacd44627810379ba49d135691829184156108fc02918591818181858888f1935050505015801561087e573d6000803e3d6000fd5b50505050565b6001600160a01b0385163314806108a057506108a085336103f2565b6108bc5760405162461bcd60e51b81526004016104a790611d9b565b6108c98585858585610fb5565b5050505050565b6000818152609c602090815260408083206001600160a01b038616845290915290205461093f5760405162461bcd60e51b815260206004820152601c60248201527f55736572206469646e7420626f75676874207468697320747261636b0000000060448201526064016104a7565b60008181526099602081815260408084206004810154609b84528286206001600160a01b0389168752845291852091909155928490525260030154610985906001611195565b60008281526099602052604090206003810191909155600401546109aa906001610d70565b6000918252609960205260409091206004015550565b60608151835114610a255760405162461bcd60e51b815260206004820152602960248201527f455243313135353a206163636f756e747320616e6420696473206c656e677468604482015268040dad2e6dac2e8c6d60bb1b60648201526084016104a7565b6000835167ffffffffffffffff811115610a4157610a416117ae565b604051908082528060200260200182016040528015610a6a578160200160208202803683370190505b50905060005b8451811015610ae257610ab5858281518110610a8e57610a8e611dea565b6020026020010151858381518110610aa857610aa8611dea565b6020026020010151610440565b828281518110610ac757610ac7611dea565b6020908102919091010152610adb81611e16565b9050610a70565b509392505050565b600054610100900460ff1615808015610b0a5750600054600160ff909116105b80610b245750303b158015610b24575060005460ff166001145b610b875760405162461bcd60e51b815260206004820152602e60248201527f496e697469616c697a61626c653a20636f6e747261637420697320616c72656160448201526d191e481a5b9a5d1a585b1a5e995960921b60648201526084016104a7565b6000805460ff191660011790558015610baa576000805461ff0019166101001790555b610c3d60978054610bba90611c8b565b80601f0160208091040260200160405190810160405280929190818152602001828054610be690611c8b565b8015610c335780601f10610c0857610100808354040283529160200191610c33565b820191906000526020600020905b815481529060010190602001808311610c1657829003601f168201915b50505050506111a1565b8015610c83576000805461ff0019169055604051600181527f7f26b83ff96e1f2b6a682f133852f6798a09c465da95921460cefb38474024989060200160405180910390a15b50565b609a6020526000908152604090208054610c9f90611c8b565b80601f0160208091040260200160405190810160405280929190818152602001828054610ccb90611c8b565b8015610d185780601f10610ced57610100808354040283529160200191610d18565b820191906000526020600020905b815481529060010190602001808311610cfb57829003601f168201915b505050505081565b61062f3383836111d1565b6001600160a01b038516331480610d475750610d4785336103f2565b610d635760405162461bcd60e51b81526004016104a790611d9b565b6108c985858585856112b1565b6000610d7c8284611e2f565b9392505050565b606081600003610daa5750506040805180820190915260018152600360fc1b602082015290565b8160005b8115610dd45780610dbe81611e16565b9150610dcd9050600a83611e5d565b9150610dae565b60008167ffffffffffffffff811115610def57610def6117ae565b6040519080825280601f01601f191660200182016040528015610e19576020820181803683370190505b5090505b8415610e8457610e2e600183611e71565b9150610e3b600a86611e88565b610e46906030611e2f565b60f81b818381518110610e5b57610e5b611dea565b60200101906001600160f81b031916908160001a905350610e7d600a86611e5d565b9450610e1d565b949350505050565b6001600160a01b038416610eec5760405162461bcd60e51b815260206004820152602160248201527f455243313135353a206d696e7420746f20746865207a65726f206164647265736044820152607360f81b60648201526084016104a7565b336000610ef8856113df565b90506000610f05856113df565b905060008681526065602090815260408083206001600160a01b038b16845290915281208054879290610f39908490611e2f565b909155505060408051878152602081018790526001600160a01b03808a1692600092918716917fc3d58168c5ae7397731d063d5bbf3d657854427343f4c083240f7aacaa2d0f62910160405180910390a4610f998360008989898961142a565b50505050505050565b805161062f906067906020840190611670565b81518351146110175760405162461bcd60e51b815260206004820152602860248201527f455243313135353a2069647320616e6420616d6f756e7473206c656e677468206044820152670dad2e6dac2e8c6d60c31b60648201526084016104a7565b6001600160a01b03841661103d5760405162461bcd60e51b81526004016104a790611e9c565b3360005b845181101561112757600085828151811061105e5761105e611dea565b60200260200101519050600085838151811061107c5761107c611dea565b60209081029190910181015160008481526065835260408082206001600160a01b038e1683529093529190912054909150818110156110cd5760405162461bcd60e51b81526004016104a790611ee1565b60008381526065602090815260408083206001600160a01b038e8116855292528083208585039055908b1682528120805484929061110c908490611e2f565b925050819055505050508061112090611e16565b9050611041565b50846001600160a01b0316866001600160a01b0316826001600160a01b03167f4a39dc06d4c0dbc64b70af90fd698a233a518aa5d07e595d983b8c0526c8f7fb8787604051611177929190611f2b565b60405180910390a461118d818787878787611585565b505050505050565b6000610d7c8284611e71565b600054610100900460ff166111c85760405162461bcd60e51b81526004016104a790611f50565b610c8381611640565b816001600160a01b0316836001600160a01b0316036112445760405162461bcd60e51b815260206004820152602960248201527f455243313135353a2073657474696e6720617070726f76616c20737461747573604482015268103337b91039b2b63360b91b60648201526084016104a7565b6001600160a01b03838116600081815260666020908152604080832094871680845294825291829020805460ff191686151590811790915591519182527f17307eab39ab6107e8899845ad3d59bd9653f200f220920489ca2b5937696c31910160405180910390a3505050565b6001600160a01b0384166112d75760405162461bcd60e51b81526004016104a790611e9c565b3360006112e3856113df565b905060006112f0856113df565b905060008681526065602090815260408083206001600160a01b038c168452909152902054858110156113355760405162461bcd60e51b81526004016104a790611ee1565b60008781526065602090815260408083206001600160a01b038d8116855292528083208985039055908a16825281208054889290611374908490611e2f565b909155505060408051888152602081018890526001600160a01b03808b16928c821692918816917fc3d58168c5ae7397731d063d5bbf3d657854427343f4c083240f7aacaa2d0f62910160405180910390a46113d4848a8a8a8a8a61142a565b505050505050505050565b6040805160018082528183019092526060916000919060208083019080368337019050509050828160008151811061141957611419611dea565b602090810291909101015292915050565b6001600160a01b0384163b1561118d5760405163f23a6e6160e01b81526001600160a01b0385169063f23a6e619061146e9089908990889088908890600401611f9b565b6020604051808303816000875af19250505080156114a9575060408051601f3d908101601f191682019092526114a691810190611fe0565b60015b611555576114b5611ffd565b806308c379a0036114ee57506114c9612019565b806114d457506114f0565b8060405162461bcd60e51b81526004016104a79190611909565b505b60405162461bcd60e51b815260206004820152603460248201527f455243313135353a207472616e7366657220746f206e6f6e20455243313135356044820152732932b1b2b4bb32b91034b6b83632b6b2b73a32b960611b60648201526084016104a7565b6001600160e01b0319811663f23a6e6160e01b14610f995760405162461bcd60e51b81526004016104a7906120a3565b6001600160a01b0384163b1561118d5760405163bc197c8160e01b81526001600160a01b0385169063bc197c81906115c990899089908890889088906004016120eb565b6020604051808303816000875af1925050508015611604575060408051601f3d908101601f1916820190925261160191810190611fe0565b60015b611610576114b5611ffd565b6001600160e01b0319811663bc197c8160e01b14610f995760405162461bcd60e51b81526004016104a7906120a3565b600054610100900460ff166116675760405162461bcd60e51b81526004016104a790611f50565b610c8381610fa2565b82805461167c90611c8b565b90600052602060002090601f01602090048101928261169e57600085556116e4565b82601f106116b757805160ff19168380011785556116e4565b828001600101855582156116e4579182015b828111156116e45782518255916020019190600101906116c9565b506116f09291506116f4565b5090565b5b808211156116f057600081556001016116f5565b80356001600160a01b038116811461172057600080fd5b919050565b6000806040838503121561173857600080fd5b61174183611709565b946020939093013593505050565b6001600160e01b031981168114610c8357600080fd5b60006020828403121561177757600080fd5b8135610d7c8161174f565b60008060006060848603121561179757600080fd5b505081359360208301359350604090920135919050565b634e487b7160e01b600052604160045260246000fd5b601f8201601f1916810167ffffffffffffffff811182821017156117ea576117ea6117ae565b6040525050565b600067ffffffffffffffff83111561180b5761180b6117ae565b604051611822601f8501601f1916602001826117c4565b80915083815284848401111561183757600080fd5b83836020830137600060208583010152509392505050565b60006020828403121561186157600080fd5b813567ffffffffffffffff81111561187857600080fd5b8201601f8101841361188957600080fd5b610e84848235602084016117f1565b6000602082840312156118aa57600080fd5b5035919050565b60005b838110156118cc5781810151838201526020016118b4565b8381111561087e5750506000910152565b600081518084526118f58160208601602086016118b1565b601f01601f19169290920160200192915050565b602081526000610d7c60208301846118dd565b6000806040838503121561192f57600080fd5b8235915061193f60208401611709565b90509250929050565b600067ffffffffffffffff821115611962576119626117ae565b5060051b60200190565b600082601f83011261197d57600080fd5b8135602061198a82611948565b60405161199782826117c4565b83815260059390931b85018201928281019150868411156119b757600080fd5b8286015b848110156119d257803583529183019183016119bb565b509695505050505050565b600082601f8301126119ee57600080fd5b610d7c838335602085016117f1565b600080600080600060a08688031215611a1557600080fd5b611a1e86611709565b9450611a2c60208701611709565b9350604086013567ffffffffffffffff80821115611a4957600080fd5b611a5589838a0161196c565b94506060880135915080821115611a6b57600080fd5b611a7789838a0161196c565b93506080880135915080821115611a8d57600080fd5b50611a9a888289016119dd565b9150509295509295909350565b60008060408385031215611aba57600080fd5b823567ffffffffffffffff80821115611ad257600080fd5b818501915085601f830112611ae657600080fd5b81356020611af382611948565b604051611b0082826117c4565b83815260059390931b8501820192828101915089841115611b2057600080fd5b948201945b83861015611b4557611b3686611709565b82529482019490820190611b25565b96505086013592505080821115611b5b57600080fd5b50611b688582860161196c565b9150509250929050565b600081518084526020808501945080840160005b83811015611ba257815187529582019590820190600101611b86565b509495945050505050565b602081526000610d7c6020830184611b72565b60008060408385031215611bd357600080fd5b611bdc83611709565b915060208301358015158114611bf157600080fd5b809150509250929050565b60008060408385031215611c0f57600080fd5b611c1883611709565b915061193f60208401611709565b600080600080600060a08688031215611c3e57600080fd5b611c4786611709565b9450611c5560208701611709565b93506040860135925060608601359150608086013567ffffffffffffffff811115611c7f57600080fd5b611a9a888289016119dd565b600181811c90821680611c9f57607f821691505b602082108103611cbf57634e487b7160e01b600052602260045260246000fd5b50919050565b60008151611cd78185602086016118b1565b9290920192915050565b600080845481600182811c915080831680611cfd57607f831692505b60208084108203611d1c57634e487b7160e01b86526022600452602486fd5b818015611d305760018114611d4157611d6e565b60ff19861689528489019650611d6e565b60008b81526020902060005b86811015611d665781548b820152908501908301611d4d565b505084890196505b505050505050611d92611d818286611cc5565b64173539b7b760d91b815260050190565b95945050505050565b6020808252602f908201527f455243313135353a2063616c6c6572206973206e6f7420746f6b656e206f776e60408201526e195c881b9bdc88185c1c1c9bdd9959608a1b606082015260800190565b634e487b7160e01b600052603260045260246000fd5b634e487b7160e01b600052601160045260246000fd5b600060018201611e2857611e28611e00565b5060010190565b60008219821115611e4257611e42611e00565b500190565b634e487b7160e01b600052601260045260246000fd5b600082611e6c57611e6c611e47565b500490565b600082821015611e8357611e83611e00565b500390565b600082611e9757611e97611e47565b500690565b60208082526025908201527f455243313135353a207472616e7366657220746f20746865207a65726f206164604082015264647265737360d81b606082015260800190565b6020808252602a908201527f455243313135353a20696e73756666696369656e742062616c616e636520666f60408201526939103a3930b739b332b960b11b606082015260800190565b604081526000611f3e6040830185611b72565b8281036020840152611d928185611b72565b6020808252602b908201527f496e697469616c697a61626c653a20636f6e7472616374206973206e6f74206960408201526a6e697469616c697a696e6760a81b606082015260800190565b6001600160a01b03868116825285166020820152604081018490526060810183905260a060808201819052600090611fd5908301846118dd565b979650505050505050565b600060208284031215611ff257600080fd5b8151610d7c8161174f565b600060033d11156120165760046000803e5060005160e01c5b90565b600060443d10156120275790565b6040516003193d81016004833e81513d67ffffffffffffffff816024840111818411171561205757505050505090565b828501915081518181111561206f5750505050505090565b843d87010160208285010111156120895750505050505090565b612098602082860101876117c4565b509095945050505050565b60208082526028908201527f455243313135353a204552433131353552656365697665722072656a656374656040820152676420746f6b656e7360c01b606082015260800190565b6001600160a01b0386811682528516602082015260a06040820181905260009061211790830186611b72565b82810360608401526121298186611b72565b9050828103608084015261213d81856118dd565b9897505050505050505056fea2646970667358221220bcbc758318a2403009868511d1c98825138564d98eeb743767f038d2f17c42d864736f6c634300080d0033",
  "linkReferences": {},
  "deployedLinkReferences": {}
}