{
  "_format": "hh-sol-artifact-1",
  "contractName": "NFTMint",
  "sourceName": "contracts/mint.sol",
  "abi": [
    {
      "anonymous": false,
      "inputs": [
        {
          "indexed": true,
          "internalType": "address",
          "name": "account",
          "type": "address"
        },
        {
          "indexed": true,
          "internalType": "address",
          "name": "operator",
          "type": "address"
        },
        {
          "indexed": false,
          "internalType": "bool",
          "name": "approved",
          "type": "bool"
        }
      ],
      "name": "ApprovalForAll",
      "type": "event"
    },
    {
      "anonymous": false,
      "inputs": [
        {
          "indexed": false,
          "internalType": "uint8",
          "name": "version",
          "type": "uint8"
        }
      ],
      "name": "Initialized",
      "type": "event"
    },
    {
      "anonymous": false,
      "inputs": [
        {
          "indexed": true,
          "internalType": "address",
          "name": "operator",
          "type": "address"
        },
        {
          "indexed": true,
          "internalType": "address",
          "name": "from",
          "type": "address"
        },
        {
          "indexed": true,
          "internalType": "address",
          "name": "to",
          "type": "address"
        },
        {
          "indexed": false,
          "internalType": "uint256[]",
          "name": "ids",
          "type": "uint256[]"
        },
        {
          "indexed": false,
          "internalType": "uint256[]",
          "name": "values",
          "type": "uint256[]"
        }
      ],
      "name": "TransferBatch",
      "type": "event"
    },
    {
      "anonymous": false,
      "inputs": [
        {
          "indexed": true,
          "internalType": "address",
          "name": "operator",
          "type": "address"
        },
        {
          "indexed": true,
          "internalType": "address",
          "name": "from",
          "type": "address"
        },
        {
          "indexed": true,
          "internalType": "address",
          "name": "to",
          "type": "address"
        },
        {
          "indexed": false,
          "internalType": "uint256",
          "name": "id",
          "type": "uint256"
        },
        {
          "indexed": false,
          "internalType": "uint256",
          "name": "value",
          "type": "uint256"
        }
      ],
      "name": "TransferSingle",
      "type": "event"
    },
    {
      "anonymous": false,
      "inputs": [
        {
          "indexed": false,
          "internalType": "string",
          "name": "value",
          "type": "string"
        },
        {
          "indexed": true,
          "internalType": "uint256",
          "name": "id",
          "type": "uint256"
        }
      ],
      "name": "URI",
      "type": "event"
    },
    {
      "inputs": [
        {
          "internalType": "address",
          "name": "account",
          "type": "address"
        },
        {
          "internalType": "uint256",
          "name": "id",
          "type": "uint256"
        }
      ],
      "name": "balanceOf",
      "outputs": [
        {
          "internalType": "uint256",
          "name": "",
          "type": "uint256"
        }
      ],
      "stateMutability": "view",
      "type": "function"
    },
    {
      "inputs": [
        {
          "internalType": "address[]",
          "name": "accounts",
          "type": "address[]"
        },
        {
          "internalType": "uint256[]",
          "name": "ids",
          "type": "uint256[]"
        }
      ],
      "name": "balanceOfBatch",
      "outputs": [
        {
          "internalType": "uint256[]",
          "name": "",
          "type": "uint256[]"
        }
      ],
      "stateMutability": "view",
      "type": "function"
    },
    {
      "inputs": [
        {
          "internalType": "uint256",
          "name": "",
          "type": "uint256"
        },
        {
          "internalType": "address",
          "name": "",
          "type": "address"
        }
      ],
      "name": "buyers",
      "outputs": [
        {
          "internalType": "uint256",
          "name": "",
          "type": "uint256"
        }
      ],
      "stateMutability": "view",
      "type": "function"
    },
    {
      "inputs": [
        {
          "internalType": "uint256",
          "name": "_NftId",
          "type": "uint256"
        },
        {
          "internalType": "address",
          "name": "buyer_addr",
          "type": "address"
        }
      ],
      "name": "getTrackLink",
      "outputs": [
        {
          "internalType": "string",
          "name": "",
          "type": "string"
        }
      ],
      "stateMutability": "view",
      "type": "function"
    },
    {
      "inputs": [
        {
          "internalType": "string",
          "name": "_baseurl",
          "type": "string"
        },
        {
          "internalType": "uint256",
          "name": "fee",
          "type": "uint256"
        }
      ],
      "name": "initialize",
      "outputs": [],
      "stateMutability": "nonpayable",
      "type": "function"
    },
    {
      "inputs": [
        {
          "internalType": "address",
          "name": "account",
          "type": "address"
        },
        {
          "internalType": "address",
          "name": "operator",
          "type": "address"
        }
      ],
      "name": "isApprovedForAll",
      "outputs": [
        {
          "internalType": "bool",
          "name": "",
          "type": "bool"
        }
      ],
      "stateMutability": "view",
      "type": "function"
    },
    {
      "inputs": [
        {
          "internalType": "uint256",
          "name": "price",
          "type": "uint256"
        },
        {
          "internalType": "uint256",
          "name": "_noOfTracks",
          "type": "uint256"
        },
        {
          "internalType": "string",
          "name": "_tracklink",
          "type": "string"
        }
      ],
      "name": "mintToken",
      "outputs": [],
      "stateMutability": "nonpayable",
      "type": "function"
    },
    {
      "inputs": [],
      "name": "nftId",
      "outputs": [
        {
          "internalType": "uint256",
          "name": "",
          "type": "uint256"
        }
      ],
      "stateMutability": "view",
      "type": "function"
    },
    {
      "inputs": [
        {
          "internalType": "uint256",
          "name": "",
          "type": "uint256"
        }
      ],
      "name": "nfts",
      "outputs": [
        {
          "internalType": "uint256",
          "name": "NftId",
          "type": "uint256"
        },
        {
          "internalType": "address payable",
          "name": "artist",
          "type": "address"
        },
        {
          "internalType": "uint256",
          "name": "price",
          "type": "uint256"
        },
        {
          "internalType": "uint256",
          "name": "no_of_tracks",
          "type": "uint256"
        },
        {
          "internalType": "uint256",
          "name": "tracks_sold",
          "type": "uint256"
        }
      ],
      "stateMutability": "view",
      "type": "function"
    },
    {
      "inputs": [
        {
          "internalType": "uint256",
          "name": "_NftId",
          "type": "uint256"
        }
      ],
      "name": "payment",
      "outputs": [],
      "stateMutability": "payable",
      "type": "function"
    },
    {
      "inputs": [],
      "name": "platformFee",
      "outputs": [
        {
          "internalType": "uint256",
          "name": "",
          "type": "uint256"
        }
      ],
      "stateMutability": "view",
      "type": "function"
    },
    {
      "inputs": [
        {
          "internalType": "address",
          "name": "from",
          "type": "address"
        },
        {
          "internalType": "address",
          "name": "to",
          "type": "address"
        },
        {
          "internalType": "uint256[]",
          "name": "ids",
          "type": "uint256[]"
        },
        {
          "internalType": "uint256[]",
          "name": "amounts",
          "type": "uint256[]"
        },
        {
          "internalType": "bytes",
          "name": "data",
          "type": "bytes"
        }
      ],
      "name": "safeBatchTransferFrom",
      "outputs": [],
      "stateMutability": "nonpayable",
      "type": "function"
    },
    {
      "inputs": [
        {
          "internalType": "address",
          "name": "from",
          "type": "address"
        },
        {
          "internalType": "address",
          "name": "to",
          "type": "address"
        },
        {
          "internalType": "uint256",
          "name": "id",
          "type": "uint256"
        },
        {
          "internalType": "uint256",
          "name": "amount",
          "type": "uint256"
        },
        {
          "internalType": "bytes",
          "name": "data",
          "type": "bytes"
        }
      ],
      "name": "safeTransferFrom",
      "outputs": [],
      "stateMutability": "nonpayable",
      "type": "function"
    },
    {
      "inputs": [
        {
          "internalType": "address",
          "name": "operator",
          "type": "address"
        },
        {
          "internalType": "bool",
          "name": "approved",
          "type": "bool"
        }
      ],
      "name": "setApprovalForAll",
      "outputs": [],
      "stateMutability": "nonpayable",
      "type": "function"
    },
    {
      "inputs": [
        {
          "internalType": "bytes4",
          "name": "interfaceId",
          "type": "bytes4"
        }
      ],
      "name": "supportsInterface",
      "outputs": [
        {
          "internalType": "bool",
          "name": "",
          "type": "bool"
        }
      ],
      "stateMutability": "view",
      "type": "function"
    },
    {
      "inputs": [
        {
          "internalType": "uint256",
          "name": "",
          "type": "uint256"
        }
      ],
      "name": "uri",
      "outputs": [
        {
          "internalType": "string",
          "name": "",
          "type": "string"
        }
      ],
      "stateMutability": "view",
      "type": "function"
    }
  ],
  "bytecode": "0x608060405234801561001057600080fd5b506001609755611d80806100256000396000f3fe6080604052600436106100f25760003560e01c8063388fc40c1161008a578063a22cb46511610059578063a22cb4651461031b578063c6bc51821461033b578063e985e9c514610351578063f242432a1461039a57600080fd5b8063388fc40c146102835780634e1273f4146102bb5780638b3c99e3146102e85780638beaf7d7146102fb57600080fd5b8063233f9de7116100c6578063233f9de7146101a757806326232a2e146101c9578063265aa621146101df5780632eb2c2d61461026357600080fd5b8062fdd58e146100f757806301ffc9a71461012a5780630e89341c1461015a57806319b7702b14610187575b600080fd5b34801561010357600080fd5b50610117610112366004611436565b6103ba565b6040519081526020015b60405180910390f35b34801561013657600080fd5b5061014a610145366004611476565b610452565b6040519015158152602001610121565b34801561016657600080fd5b5061017a61017536600461149a565b6104a4565b6040516101219190611500565b34801561019357600080fd5b5061017a6101a2366004611513565b610538565b3480156101b357600080fd5b506101c76101c23660046115f6565b610649565b005b3480156101d557600080fd5b5061011760995481565b3480156101eb57600080fd5b506102336101fa36600461149a565b609a602052600090815260409020805460018201546002830154600384015460049094015492936001600160a01b039092169290919085565b604080519586526001600160a01b039094166020860152928401919091526060830152608082015260a001610121565b34801561026f57600080fd5b506101c761027e3660046116db565b610727565b34801561028f57600080fd5b5061011761029e366004611513565b609c60209081526000928352604080842090915290825290205481565b3480156102c757600080fd5b506102db6102d6366004611785565b610773565b604051610121919061188b565b6101c76102f636600461149a565b61089d565b34801561030757600080fd5b506101c761031636600461189e565b610a42565b34801561032757600080fd5b506101c76103363660046118e3565b610b5b565b34801561034757600080fd5b5061011760985481565b34801561035d57600080fd5b5061014a61036c36600461191f565b6001600160a01b03918216600090815260666020908152604080832093909416825291909152205460ff1690565b3480156103a657600080fd5b506101c76103b5366004611949565b610b6a565b60006001600160a01b03831661042a5760405162461bcd60e51b815260206004820152602a60248201527f455243313135353a2061646472657373207a65726f206973206e6f742061207660448201526930b634b21037bbb732b960b11b60648201526084015b60405180910390fd5b5060009081526065602090815260408083206001600160a01b03949094168352929052205490565b60006001600160e01b03198216636cdb3d1360e11b148061048357506001600160e01b031982166303a24d0760e21b145b8061049e57506301ffc9a760e01b6001600160e01b03198316145b92915050565b6060606780546104b3906119ae565b80601f01602080910402602001604051908101604052809291908181526020018280546104df906119ae565b801561052c5780601f106105015761010080835404028352916020019161052c565b820191906000526020600020905b81548152906001019060200180831161050f57829003601f168201915b50505050509050919050565b6000828152609c602090815260408083206001600160a01b03851684529091529020546060906105aa5760405162461bcd60e51b815260206004820152601c60248201527f55736572206469646e7420626f75676874207468697320747261636b000000006044820152606401610421565b6000838152609b6020526040902080546105c3906119ae565b80601f01602080910402602001604051908101604052809291908181526020018280546105ef906119ae565b801561063c5780601f106106115761010080835404028352916020019161063c565b820191906000526020600020905b81548152906001019060200180831161061f57829003601f168201915b5050505050905092915050565b6040805160a08101825260985480825233602080840182905283850188905260608401879052600060808501819052928352609b815293909120845191936106949290860190611381565b50609880546000908152609a6020908152604080832085518155858301516001820180546001600160a01b0319166001600160a01b039092169190911790558582015160028201556060860151600382015560808601516004909101559254835191820190935290815261070b9133918790610baf565b6098805490600061071b836119fe565b91905055505050505050565b6001600160a01b0385163314806107435750610743853361036c565b61075f5760405162461bcd60e51b815260040161042190611a17565b61076c8585858585610cc5565b5050505050565b606081518351146107d85760405162461bcd60e51b815260206004820152602960248201527f455243313135353a206163636f756e747320616e6420696473206c656e677468604482015268040dad2e6dac2e8c6d60bb1b6064820152608401610421565b6000835167ffffffffffffffff8111156107f4576107f461153f565b60405190808252806020026020018201604052801561081d578160200160208202803683370190505b50905060005b84518110156108955761086885828151811061084157610841611a66565b602002602001015185838151811061085b5761085b611a66565b60200260200101516103ba565b82828151811061087a5761087a611a66565b602090810291909101015261088e816119fe565b9050610823565b509392505050565b6000818152609a6020908152604091829020825160a0810184528154815260018201546001600160a01b03169281019290925260028101549282018390526003810154606083015260040154608082015234918210156109335760405162461bcd60e51b8152602060048201526011602482015270105b5bdd5b9d081b5a5cdb585d18da1959607a1b6044820152606401610421565b80608001518160600151116109755760405162461bcd60e51b815260206004820152600860248201526714dbdb19081bdd5d60c21b6044820152606401610421565b60405173821fc28a7f932fcedacd44627810379ba49d135690819084156108fc029085906000818181858888f193505050501580156109b8573d6000803e3d6000fd5b5060808201805133916001916109cf908390611a7c565b9052506000948552609a6020908152604080872085518155858301516001820180546001600160a01b0319166001600160a01b03928316179055868301516002830155606087015160038301556080909601516004909101819055609c8352818820939095168752919052909320555050565b600054610100900460ff1615808015610a625750600054600160ff909116105b80610a7c5750303b158015610a7c575060005460ff166001145b610adf5760405162461bcd60e51b815260206004820152602e60248201527f496e697469616c697a61626c653a20636f6e747261637420697320616c72656160448201526d191e481a5b9a5d1a585b1a5e995960921b6064820152608401610421565b6000805460ff191660011790558015610b02576000805461ff0019166101001790555b610b0b83610ea5565b60998290558015610b56576000805461ff0019169055604051600181527f7f26b83ff96e1f2b6a682f133852f6798a09c465da95921460cefb38474024989060200160405180910390a15b505050565b610b66338383610ed8565b5050565b6001600160a01b038516331480610b865750610b86853361036c565b610ba25760405162461bcd60e51b815260040161042190611a17565b61076c8585858585610fb8565b6001600160a01b038416610c0f5760405162461bcd60e51b815260206004820152602160248201527f455243313135353a206d696e7420746f20746865207a65726f206164647265736044820152607360f81b6064820152608401610421565b336000610c1b856110e6565b90506000610c28856110e6565b905060008681526065602090815260408083206001600160a01b038b16845290915281208054879290610c5c908490611a7c565b909155505060408051878152602081018790526001600160a01b03808a1692600092918716917fc3d58168c5ae7397731d063d5bbf3d657854427343f4c083240f7aacaa2d0f62910160405180910390a4610cbc83600089898989611131565b50505050505050565b8151835114610d275760405162461bcd60e51b815260206004820152602860248201527f455243313135353a2069647320616e6420616d6f756e7473206c656e677468206044820152670dad2e6dac2e8c6d60c31b6064820152608401610421565b6001600160a01b038416610d4d5760405162461bcd60e51b815260040161042190611a94565b3360005b8451811015610e37576000858281518110610d6e57610d6e611a66565b602002602001015190506000858381518110610d8c57610d8c611a66565b60209081029190910181015160008481526065835260408082206001600160a01b038e168352909352919091205490915081811015610ddd5760405162461bcd60e51b815260040161042190611ad9565b60008381526065602090815260408083206001600160a01b038e8116855292528083208585039055908b16825281208054849290610e1c908490611a7c565b9250508190555050505080610e30906119fe565b9050610d51565b50846001600160a01b0316866001600160a01b0316826001600160a01b03167f4a39dc06d4c0dbc64b70af90fd698a233a518aa5d07e595d983b8c0526c8f7fb8787604051610e87929190611b23565b60405180910390a4610e9d81878787878761128c565b505050505050565b600054610100900460ff16610ecc5760405162461bcd60e51b815260040161042190611b51565b610ed581611347565b50565b816001600160a01b0316836001600160a01b031603610f4b5760405162461bcd60e51b815260206004820152602960248201527f455243313135353a2073657474696e6720617070726f76616c20737461747573604482015268103337b91039b2b63360b91b6064820152608401610421565b6001600160a01b03838116600081815260666020908152604080832094871680845294825291829020805460ff191686151590811790915591519182527f17307eab39ab6107e8899845ad3d59bd9653f200f220920489ca2b5937696c31910160405180910390a3505050565b6001600160a01b038416610fde5760405162461bcd60e51b815260040161042190611a94565b336000610fea856110e6565b90506000610ff7856110e6565b905060008681526065602090815260408083206001600160a01b038c1684529091529020548581101561103c5760405162461bcd60e51b815260040161042190611ad9565b60008781526065602090815260408083206001600160a01b038d8116855292528083208985039055908a1682528120805488929061107b908490611a7c565b909155505060408051888152602081018890526001600160a01b03808b16928c821692918816917fc3d58168c5ae7397731d063d5bbf3d657854427343f4c083240f7aacaa2d0f62910160405180910390a46110db848a8a8a8a8a611131565b505050505050505050565b6040805160018082528183019092526060916000919060208083019080368337019050509050828160008151811061112057611120611a66565b602090810291909101015292915050565b6001600160a01b0384163b15610e9d5760405163f23a6e6160e01b81526001600160a01b0385169063f23a6e61906111759089908990889088908890600401611b9c565b6020604051808303816000875af19250505080156111b0575060408051601f3d908101601f191682019092526111ad91810190611be1565b60015b61125c576111bc611bfe565b806308c379a0036111f557506111d0611c1a565b806111db57506111f7565b8060405162461bcd60e51b81526004016104219190611500565b505b60405162461bcd60e51b815260206004820152603460248201527f455243313135353a207472616e7366657220746f206e6f6e20455243313135356044820152732932b1b2b4bb32b91034b6b83632b6b2b73a32b960611b6064820152608401610421565b6001600160e01b0319811663f23a6e6160e01b14610cbc5760405162461bcd60e51b815260040161042190611ca4565b6001600160a01b0384163b15610e9d5760405163bc197c8160e01b81526001600160a01b0385169063bc197c81906112d09089908990889088908890600401611cec565b6020604051808303816000875af192505050801561130b575060408051601f3d908101601f1916820190925261130891810190611be1565b60015b611317576111bc611bfe565b6001600160e01b0319811663bc197c8160e01b14610cbc5760405162461bcd60e51b815260040161042190611ca4565b600054610100900460ff1661136e5760405162461bcd60e51b815260040161042190611b51565b610ed5818051610b669060679060208401905b82805461138d906119ae565b90600052602060002090601f0160209004810192826113af57600085556113f5565b82601f106113c857805160ff19168380011785556113f5565b828001600101855582156113f5579182015b828111156113f55782518255916020019190600101906113da565b50611401929150611405565b5090565b5b808211156114015760008155600101611406565b80356001600160a01b038116811461143157600080fd5b919050565b6000806040838503121561144957600080fd5b6114528361141a565b946020939093013593505050565b6001600160e01b031981168114610ed557600080fd5b60006020828403121561148857600080fd5b813561149381611460565b9392505050565b6000602082840312156114ac57600080fd5b5035919050565b6000815180845260005b818110156114d9576020818501810151868301820152016114bd565b818111156114eb576000602083870101525b50601f01601f19169290920160200192915050565b60208152600061149360208301846114b3565b6000806040838503121561152657600080fd5b823591506115366020840161141a565b90509250929050565b634e487b7160e01b600052604160045260246000fd5b601f8201601f1916810167ffffffffffffffff8111828210171561157b5761157b61153f565b6040525050565b600082601f83011261159357600080fd5b813567ffffffffffffffff8111156115ad576115ad61153f565b6040516115c4601f8301601f191660200182611555565b8181528460208386010111156115d957600080fd5b816020850160208301376000918101602001919091529392505050565b60008060006060848603121561160b57600080fd5b8335925060208401359150604084013567ffffffffffffffff81111561163057600080fd5b61163c86828701611582565b9150509250925092565b600067ffffffffffffffff8211156116605761166061153f565b5060051b60200190565b600082601f83011261167b57600080fd5b8135602061168882611646565b6040516116958282611555565b83815260059390931b85018201928281019150868411156116b557600080fd5b8286015b848110156116d057803583529183019183016116b9565b509695505050505050565b600080600080600060a086880312156116f357600080fd5b6116fc8661141a565b945061170a6020870161141a565b9350604086013567ffffffffffffffff8082111561172757600080fd5b61173389838a0161166a565b9450606088013591508082111561174957600080fd5b61175589838a0161166a565b9350608088013591508082111561176b57600080fd5b5061177888828901611582565b9150509295509295909350565b6000806040838503121561179857600080fd5b823567ffffffffffffffff808211156117b057600080fd5b818501915085601f8301126117c457600080fd5b813560206117d182611646565b6040516117de8282611555565b83815260059390931b85018201928281019150898411156117fe57600080fd5b948201945b83861015611823576118148661141a565b82529482019490820190611803565b9650508601359250508082111561183957600080fd5b506118468582860161166a565b9150509250929050565b600081518084526020808501945080840160005b8381101561188057815187529582019590820190600101611864565b509495945050505050565b6020815260006114936020830184611850565b600080604083850312156118b157600080fd5b823567ffffffffffffffff8111156118c857600080fd5b6118d485828601611582565b95602094909401359450505050565b600080604083850312156118f657600080fd5b6118ff8361141a565b91506020830135801515811461191457600080fd5b809150509250929050565b6000806040838503121561193257600080fd5b61193b8361141a565b91506115366020840161141a565b600080600080600060a0868803121561196157600080fd5b61196a8661141a565b94506119786020870161141a565b93506040860135925060608601359150608086013567ffffffffffffffff8111156119a257600080fd5b61177888828901611582565b600181811c908216806119c257607f821691505b6020821081036119e257634e487b7160e01b600052602260045260246000fd5b50919050565b634e487b7160e01b600052601160045260246000fd5b600060018201611a1057611a106119e8565b5060010190565b6020808252602f908201527f455243313135353a2063616c6c6572206973206e6f7420746f6b656e206f776e60408201526e195c881b9bdc88185c1c1c9bdd9959608a1b606082015260800190565b634e487b7160e01b600052603260045260246000fd5b60008219821115611a8f57611a8f6119e8565b500190565b60208082526025908201527f455243313135353a207472616e7366657220746f20746865207a65726f206164604082015264647265737360d81b606082015260800190565b6020808252602a908201527f455243313135353a20696e73756666696369656e742062616c616e636520666f60408201526939103a3930b739b332b960b11b606082015260800190565b604081526000611b366040830185611850565b8281036020840152611b488185611850565b95945050505050565b6020808252602b908201527f496e697469616c697a61626c653a20636f6e7472616374206973206e6f74206960408201526a6e697469616c697a696e6760a81b606082015260800190565b6001600160a01b03868116825285166020820152604081018490526060810183905260a060808201819052600090611bd6908301846114b3565b979650505050505050565b600060208284031215611bf357600080fd5b815161149381611460565b600060033d1115611c175760046000803e5060005160e01c5b90565b600060443d1015611c285790565b6040516003193d81016004833e81513d67ffffffffffffffff8160248401118184111715611c5857505050505090565b8285019150815181811115611c705750505050505090565b843d8701016020828501011115611c8a5750505050505090565b611c9960208286010187611555565b509095945050505050565b60208082526028908201527f455243313135353a204552433131353552656365697665722072656a656374656040820152676420746f6b656e7360c01b606082015260800190565b6001600160a01b0386811682528516602082015260a060408201819052600090611d1890830186611850565b8281036060840152611d2a8186611850565b90508281036080840152611d3e81856114b3565b9897505050505050505056fea2646970667358221220e0c3ebe6c8071782df6eaf86383814dd207ae7c014e38e2be7c24249702217d364736f6c634300080d0033",
  "linkReferences": {},
  "deployedLinkReferences": {}
}