{
  "_format": "hh-sol-artifact-1",
  "contractName": "MintAndStateTransitions",
  "sourceName": "contracts/ERCmint.sol",
  "abi": [
    {
      "inputs": [
        {
          "internalType": "uint256[]",
          "name": "ids_",
          "type": "uint256[]"
        },
        {
          "internalType": "uint256[]",
          "name": "prices_",
          "type": "uint256[]"
        },
        {
          "internalType": "uint256[]",
          "name": "no_of_tracks_",
          "type": "uint256[]"
        }
      ],
      "stateMutability": "nonpayable",
      "type": "constructor"
    },
    {
      "anonymous": false,
      "inputs": [
        {
          "indexed": true,
          "internalType": "address",
          "name": "account",
          "type": "address"
        },
        {
          "indexed": true,
          "internalType": "address",
          "name": "operator",
          "type": "address"
        },
        {
          "indexed": false,
          "internalType": "bool",
          "name": "approved",
          "type": "bool"
        }
      ],
      "name": "ApprovalForAll",
      "type": "event"
    },
    {
      "anonymous": false,
      "inputs": [
        {
          "indexed": true,
          "internalType": "address",
          "name": "previousOwner",
          "type": "address"
        },
        {
          "indexed": true,
          "internalType": "address",
          "name": "newOwner",
          "type": "address"
        }
      ],
      "name": "OwnershipTransferred",
      "type": "event"
    },
    {
      "anonymous": false,
      "inputs": [
        {
          "indexed": true,
          "internalType": "address",
          "name": "operator",
          "type": "address"
        },
        {
          "indexed": true,
          "internalType": "address",
          "name": "from",
          "type": "address"
        },
        {
          "indexed": true,
          "internalType": "address",
          "name": "to",
          "type": "address"
        },
        {
          "indexed": false,
          "internalType": "uint256[]",
          "name": "ids",
          "type": "uint256[]"
        },
        {
          "indexed": false,
          "internalType": "uint256[]",
          "name": "values",
          "type": "uint256[]"
        }
      ],
      "name": "TransferBatch",
      "type": "event"
    },
    {
      "anonymous": false,
      "inputs": [
        {
          "indexed": true,
          "internalType": "address",
          "name": "operator",
          "type": "address"
        },
        {
          "indexed": true,
          "internalType": "address",
          "name": "from",
          "type": "address"
        },
        {
          "indexed": true,
          "internalType": "address",
          "name": "to",
          "type": "address"
        },
        {
          "indexed": false,
          "internalType": "uint256",
          "name": "id",
          "type": "uint256"
        },
        {
          "indexed": false,
          "internalType": "uint256",
          "name": "value",
          "type": "uint256"
        }
      ],
      "name": "TransferSingle",
      "type": "event"
    },
    {
      "anonymous": false,
      "inputs": [
        {
          "indexed": false,
          "internalType": "string",
          "name": "value",
          "type": "string"
        },
        {
          "indexed": true,
          "internalType": "uint256",
          "name": "id",
          "type": "uint256"
        }
      ],
      "name": "URI",
      "type": "event"
    },
    {
      "inputs": [
        {
          "internalType": "address",
          "name": "account",
          "type": "address"
        },
        {
          "internalType": "uint256",
          "name": "id",
          "type": "uint256"
        }
      ],
      "name": "balanceOf",
      "outputs": [
        {
          "internalType": "uint256",
          "name": "",
          "type": "uint256"
        }
      ],
      "stateMutability": "view",
      "type": "function"
    },
    {
      "inputs": [
        {
          "internalType": "address[]",
          "name": "accounts",
          "type": "address[]"
        },
        {
          "internalType": "uint256[]",
          "name": "ids",
          "type": "uint256[]"
        }
      ],
      "name": "balanceOfBatch",
      "outputs": [
        {
          "internalType": "uint256[]",
          "name": "",
          "type": "uint256[]"
        }
      ],
      "stateMutability": "view",
      "type": "function"
    },
    {
      "inputs": [
        {
          "internalType": "uint256",
          "name": "",
          "type": "uint256"
        },
        {
          "internalType": "address",
          "name": "",
          "type": "address"
        }
      ],
      "name": "buyers",
      "outputs": [
        {
          "internalType": "uint256",
          "name": "",
          "type": "uint256"
        }
      ],
      "stateMutability": "view",
      "type": "function"
    },
    {
      "inputs": [
        {
          "internalType": "uint256",
          "name": "_NftId",
          "type": "uint256"
        },
        {
          "internalType": "address",
          "name": "buyer_addr",
          "type": "address"
        }
      ],
      "name": "getTrackLink",
      "outputs": [
        {
          "internalType": "string",
          "name": "",
          "type": "string"
        }
      ],
      "stateMutability": "view",
      "type": "function"
    },
    {
      "inputs": [
        {
          "internalType": "address",
          "name": "account",
          "type": "address"
        },
        {
          "internalType": "address",
          "name": "operator",
          "type": "address"
        }
      ],
      "name": "isApprovedForAll",
      "outputs": [
        {
          "internalType": "bool",
          "name": "",
          "type": "bool"
        }
      ],
      "stateMutability": "view",
      "type": "function"
    },
    {
      "inputs": [
        {
          "internalType": "uint256",
          "name": "_id",
          "type": "uint256"
        },
        {
          "internalType": "uint256",
          "name": "_amount",
          "type": "uint256"
        }
      ],
      "name": "mintSingle",
      "outputs": [],
      "stateMutability": "nonpayable",
      "type": "function"
    },
    {
      "inputs": [],
      "name": "owner",
      "outputs": [
        {
          "internalType": "address",
          "name": "",
          "type": "address"
        }
      ],
      "stateMutability": "view",
      "type": "function"
    },
    {
      "inputs": [
        {
          "internalType": "uint256",
          "name": "_id",
          "type": "uint256"
        }
      ],
      "name": "payment",
      "outputs": [],
      "stateMutability": "payable",
      "type": "function"
    },
    {
      "inputs": [],
      "name": "renounceOwnership",
      "outputs": [],
      "stateMutability": "nonpayable",
      "type": "function"
    },
    {
      "inputs": [
        {
          "internalType": "address",
          "name": "from",
          "type": "address"
        },
        {
          "internalType": "address",
          "name": "to",
          "type": "address"
        },
        {
          "internalType": "uint256[]",
          "name": "ids",
          "type": "uint256[]"
        },
        {
          "internalType": "uint256[]",
          "name": "amounts",
          "type": "uint256[]"
        },
        {
          "internalType": "bytes",
          "name": "data",
          "type": "bytes"
        }
      ],
      "name": "safeBatchTransferFrom",
      "outputs": [],
      "stateMutability": "nonpayable",
      "type": "function"
    },
    {
      "inputs": [
        {
          "internalType": "address",
          "name": "from",
          "type": "address"
        },
        {
          "internalType": "address",
          "name": "to",
          "type": "address"
        },
        {
          "internalType": "uint256",
          "name": "id",
          "type": "uint256"
        },
        {
          "internalType": "uint256",
          "name": "amount",
          "type": "uint256"
        },
        {
          "internalType": "bytes",
          "name": "data",
          "type": "bytes"
        }
      ],
      "name": "safeTransferFrom",
      "outputs": [],
      "stateMutability": "nonpayable",
      "type": "function"
    },
    {
      "inputs": [
        {
          "internalType": "address",
          "name": "operator",
          "type": "address"
        },
        {
          "internalType": "bool",
          "name": "approved",
          "type": "bool"
        }
      ],
      "name": "setApprovalForAll",
      "outputs": [],
      "stateMutability": "nonpayable",
      "type": "function"
    },
    {
      "inputs": [
        {
          "internalType": "bytes4",
          "name": "interfaceId",
          "type": "bytes4"
        }
      ],
      "name": "supportsInterface",
      "outputs": [
        {
          "internalType": "bool",
          "name": "",
          "type": "bool"
        }
      ],
      "stateMutability": "view",
      "type": "function"
    },
    {
      "inputs": [
        {
          "internalType": "address",
          "name": "newOwner",
          "type": "address"
        }
      ],
      "name": "transferOwnership",
      "outputs": [],
      "stateMutability": "nonpayable",
      "type": "function"
    },
    {
      "inputs": [
        {
          "internalType": "uint256",
          "name": "_id",
          "type": "uint256"
        }
      ],
      "name": "uri",
      "outputs": [
        {
          "internalType": "string",
          "name": "",
          "type": "string"
        }
      ],
      "stateMutability": "view",
      "type": "function"
    }
  ],
  "bytecode": "0x6101006040526051608081815290620026dc60a03980516200002a91600491602090910190620004d6565b5060408051808201909152600580825264173539b7b760d91b60209092019182526200005991600691620004d6565b503480156200006757600080fd5b506040516200272d3803806200272d8339810160408190526200008a9162000673565b60048054620000999062000704565b80601f0160208091040260200160405190810160405280929190818152602001828054620000c79062000704565b8015620001185780601f10620000ec5761010080835404028352916020019162000118565b820191906000526020600020905b815481529060010190602001808311620000fa57829003601f168201915b50505050506200012e816200034b60201b60201c565b506200013a3362000364565b81516200014f90600b90602085019062000565565b5082516200016590600a90602086019062000565565b5080516200017b90600c90602084019062000565565b5060005b600a5481101562000341578060086000600a8481548110620001a557620001a562000740565b906000526020600020015481526020019081526020016000208190555060076040518060800160405280600a8481548110620001e557620001e562000740565b90600052602060002001548152602001600b84815481106200020b576200020b62000740565b90600052602060002001548152602001600c848154811062000231576200023162000740565b600091825260208083209091015483529182018190528354600181810186559482529082902083516004928302909101908155918301519382019390935560408201516002820155606090910151600390910155600a8054620002be919084908110620002a257620002a262000740565b9060005260206000200154620003b660201b62000ad71760201c565b6006604051602001620002d493929190620007f7565b60405160208183030381529060405260056000600a8481548110620002fd57620002fd62000740565b9060005260206000200154815260200190815260200160002090805190602001906200032b929190620004d6565b508062000338816200085b565b9150506200017f565b50505050620008f0565b805162000360906002906020840190620004d6565b5050565b600380546001600160a01b038381166001600160a01b0319831681179093556040519116919082907f8be0079c531659141344cd1fd0a4f28419497f9722a3daafe3b4186f6b6457e090600090a35050565b606081600003620003de5750506040805180820190915260018152600360fc1b602082015290565b8160005b81156200040e5780620003f5816200085b565b9150620004069050600a836200088d565b9150620003e2565b6000816001600160401b038111156200042b576200042b620005b9565b6040519080825280601f01601f19166020018201604052801562000456576020820181803683370190505b5090505b8415620004ce576200046e600183620008a4565b91506200047d600a86620008be565b6200048a906030620008d5565b60f81b818381518110620004a257620004a262000740565b60200101906001600160f81b031916908160001a905350620004c6600a866200088d565b94506200045a565b949350505050565b828054620004e49062000704565b90600052602060002090601f01602090048101928262000508576000855562000553565b82601f106200052357805160ff191683800117855562000553565b8280016001018555821562000553579182015b828111156200055357825182559160200191906001019062000536565b5062000561929150620005a2565b5090565b8280548282559060005260206000209081019282156200055357916020028201828111156200055357825182559160200191906001019062000536565b5b80821115620005615760008155600101620005a3565b634e487b7160e01b600052604160045260246000fd5b600082601f830112620005e157600080fd5b815160206001600160401b0380831115620006005762000600620005b9565b8260051b604051601f19603f83011681018181108482111715620006285762000628620005b9565b6040529384528581018301938381019250878511156200064757600080fd5b83870191505b8482101562000668578151835291830191908301906200064d565b979650505050505050565b6000806000606084860312156200068957600080fd5b83516001600160401b0380821115620006a157600080fd5b620006af87838801620005cf565b94506020860151915080821115620006c657600080fd5b620006d487838801620005cf565b93506040860151915080821115620006eb57600080fd5b50620006fa86828701620005cf565b9150509250925092565b600181811c908216806200071957607f821691505b6020821081036200073a57634e487b7160e01b600052602260045260246000fd5b50919050565b634e487b7160e01b600052603260045260246000fd5b8054600090600181811c90808316806200077157607f831692505b602080841082036200079357634e487b7160e01b600052602260045260246000fd5b818015620007aa5760018114620007bc57620007eb565b60ff19861689528489019650620007eb565b60008881526020902060005b86811015620007e35781548b820152908501908301620007c8565b505084890196505b50505050505092915050565b600062000805828662000756565b845160005b818110156200082657602081880181015184830152016200080a565b8181111562000836576000828401525b50620006688183018662000756565b634e487b7160e01b600052601160045260246000fd5b60006001820162000870576200087062000845565b5060010190565b634e487b7160e01b600052601260045260246000fd5b6000826200089f576200089f62000877565b500490565b600082821015620008b957620008b962000845565b500390565b600082620008d057620008d062000877565b500690565b60008219821115620008eb57620008eb62000845565b500190565b611ddc80620009006000396000f3fe6080604052600436106100e75760003560e01c8063715018a61161008a578063c709518511610059578063c709518514610293578063e985e9c5146102b3578063f242432a146102fc578063f2fde38b1461031c57600080fd5b8063715018a6146102235780638b3c99e3146102385780638da5cb5b1461024b578063a22cb4651461027357600080fd5b806319b7702b116100c657806319b7702b1461017c5780632eb2c2d61461019c578063388fc40c146101be5780634e1273f4146101f657600080fd5b8062fdd58e146100ec57806301ffc9a71461011f5780630e89341c1461014f575b600080fd5b3480156100f857600080fd5b5061010c610107366004611404565b61033c565b6040519081526020015b60405180910390f35b34801561012b57600080fd5b5061013f61013a366004611444565b6103d2565b6040519015158152602001610116565b34801561015b57600080fd5b5061016f61016a366004611468565b610424565b60405161011691906114dd565b34801561018857600080fd5b5061016f6101973660046114f0565b6104fd565b3480156101a857600080fd5b506101bc6101b7366004611668565b61060e565b005b3480156101ca57600080fd5b5061010c6101d93660046114f0565b600960209081526000928352604080842090915290825290205481565b34801561020257600080fd5b50610216610211366004611712565b61065a565b6040516101169190611818565b34801561022f57600080fd5b506101bc610784565b6101bc610246366004611468565b610798565b34801561025757600080fd5b506003546040516001600160a01b039091168152602001610116565b34801561027f57600080fd5b506101bc61028e36600461182b565b610927565b34801561029f57600080fd5b506101bc6102ae366004611867565b610936565b3480156102bf57600080fd5b5061013f6102ce366004611889565b6001600160a01b03918216600090815260016020908152604080832093909416825291909152205460ff1690565b34801561030857600080fd5b506101bc6103173660046118b3565b610a19565b34801561032857600080fd5b506101bc610337366004611918565b610a5e565b60006001600160a01b0383166103ac5760405162461bcd60e51b815260206004820152602a60248201527f455243313135353a2061646472657373207a65726f206973206e6f742061207660448201526930b634b21037bbb732b960b11b60648201526084015b60405180910390fd5b506000908152602081815260408083206001600160a01b03949094168352929052205490565b60006001600160e01b03198216636cdb3d1360e11b148061040357506001600160e01b031982166303a24d0760e21b145b8061041e57506301ffc9a760e01b6001600160e01b03198316145b92915050565b606060006004805461043590611933565b9050116104cc576004805461044990611933565b80601f016020809104026020016040519081016040528092919081815260200182805461047590611933565b80156104c25780601f10610497576101008083540402835291602001916104c2565b820191906000526020600020905b8154815290600101906020018083116104a557829003601f168201915b505050505061041e565b60046104d783610ad7565b6040516020016104e8929190611989565b60405160208183030381529060405292915050565b60008281526009602090815260408083206001600160a01b038516845290915290205460609061056f5760405162461bcd60e51b815260206004820152601a60248201527f55736572206469646e7420626f756768742074686973204e465400000000000060448201526064016103a3565b6000838152600560205260409020805461058890611933565b80601f01602080910402602001604051908101604052809291908181526020018280546105b490611933565b80156106015780601f106105d657610100808354040283529160200191610601565b820191906000526020600020905b8154815290600101906020018083116105e457829003601f168201915b5050505050905092915050565b6001600160a01b03851633148061062a575061062a85336102ce565b6106465760405162461bcd60e51b81526004016103a390611a43565b6106538585858585610be0565b5050505050565b606081518351146106bf5760405162461bcd60e51b815260206004820152602960248201527f455243313135353a206163636f756e747320616e6420696473206c656e677468604482015268040dad2e6dac2e8c6d60bb1b60648201526084016103a3565b6000835167ffffffffffffffff8111156106db576106db61151c565b604051908082528060200260200182016040528015610704578160200160208202803683370190505b50905060005b845181101561077c5761074f85828151811061072857610728611a92565b602002602001015185838151811061074257610742611a92565b602002602001015161033c565b82828151811061076157610761611a92565b602090810291909101015261077581611abe565b905061070a565b509392505050565b61078c610dbd565b6107966000610e17565b565b6000349050600b82815481106107b0576107b0611a92565b90600052602060002001548111156108185760405162461bcd60e51b815260206004820152602560248201527f455243313135353a20596f7520646f6e2774206861766520656e6f75676820666044820152643ab732399760d91b60648201526084016103a3565b60405173821fc28a7f932fcedacd44627810379ba49d135690819083156108fc029084906000818181858888f1935050505015801561085b573d6000803e3d6000fd5b50600033905060016007858154811061087657610876611a92565b906000526020600020906004020160030160008282546108969190611ad7565b925050819055506001600785815481106108b2576108b2611a92565b906000526020600020906004020160020160008282546108d29190611aef565b909155505060078054859081106108eb576108eb611a92565b60009182526020808320600360049093020191909101549582526009815260408083206001600160a01b03909416835292905220929092555050565b610932338383610e69565b5050565b61093e610dbd565b600082815260086020526040812054600780549192918291908490811061096757610967611a92565b90600052602060002090600402016001015491506007838154811061098e5761098e611a92565b9060005260206000209060040201600201549050838110156109fe5760405162461bcd60e51b8152602060048201526024808201527f455243313135353a20536f7272792c2074686973204e4654277320736f6c64206044820152636f75742160e01b60648201526084016103a3565b61065333868660405180602001604052806000815250610f49565b6001600160a01b038516331480610a355750610a3585336102ce565b610a515760405162461bcd60e51b81526004016103a390611a43565b610653858585858561105d565b610a66610dbd565b6001600160a01b038116610acb5760405162461bcd60e51b815260206004820152602660248201527f4f776e61626c653a206e6577206f776e657220697320746865207a65726f206160448201526564647265737360d01b60648201526084016103a3565b610ad481610e17565b50565b606081600003610afe5750506040805180820190915260018152600360fc1b602082015290565b8160005b8115610b285780610b1281611abe565b9150610b219050600a83611b1c565b9150610b02565b60008167ffffffffffffffff811115610b4357610b4361151c565b6040519080825280601f01601f191660200182016040528015610b6d576020820181803683370190505b5090505b8415610bd857610b82600183611aef565b9150610b8f600a86611b30565b610b9a906030611ad7565b60f81b818381518110610baf57610baf611a92565b60200101906001600160f81b031916908160001a905350610bd1600a86611b1c565b9450610b71565b949350505050565b8151835114610c425760405162461bcd60e51b815260206004820152602860248201527f455243313135353a2069647320616e6420616d6f756e7473206c656e677468206044820152670dad2e6dac2e8c6d60c31b60648201526084016103a3565b6001600160a01b038416610c685760405162461bcd60e51b81526004016103a390611b44565b3360005b8451811015610d4f576000858281518110610c8957610c89611a92565b602002602001015190506000858381518110610ca757610ca7611a92565b602090810291909101810151600084815280835260408082206001600160a01b038e168352909352919091205490915081811015610cf75760405162461bcd60e51b81526004016103a390611b89565b6000838152602081815260408083206001600160a01b038e8116855292528083208585039055908b16825281208054849290610d34908490611ad7565b9250508190555050505080610d4890611abe565b9050610c6c565b50846001600160a01b0316866001600160a01b0316826001600160a01b03167f4a39dc06d4c0dbc64b70af90fd698a233a518aa5d07e595d983b8c0526c8f7fb8787604051610d9f929190611bd3565b60405180910390a4610db5818787878787611187565b505050505050565b6003546001600160a01b031633146107965760405162461bcd60e51b815260206004820181905260248201527f4f776e61626c653a2063616c6c6572206973206e6f7420746865206f776e657260448201526064016103a3565b600380546001600160a01b038381166001600160a01b0319831681179093556040519116919082907f8be0079c531659141344cd1fd0a4f28419497f9722a3daafe3b4186f6b6457e090600090a35050565b816001600160a01b0316836001600160a01b031603610edc5760405162461bcd60e51b815260206004820152602960248201527f455243313135353a2073657474696e6720617070726f76616c20737461747573604482015268103337b91039b2b63360b91b60648201526084016103a3565b6001600160a01b03838116600081815260016020908152604080832094871680845294825291829020805460ff191686151590811790915591519182527f17307eab39ab6107e8899845ad3d59bd9653f200f220920489ca2b5937696c31910160405180910390a3505050565b6001600160a01b038416610fa95760405162461bcd60e51b815260206004820152602160248201527f455243313135353a206d696e7420746f20746865207a65726f206164647265736044820152607360f81b60648201526084016103a3565b336000610fb5856112e2565b90506000610fc2856112e2565b90506000868152602081815260408083206001600160a01b038b16845290915281208054879290610ff4908490611ad7565b909155505060408051878152602081018790526001600160a01b03808a1692600092918716917fc3d58168c5ae7397731d063d5bbf3d657854427343f4c083240f7aacaa2d0f62910160405180910390a46110548360008989898961132d565b50505050505050565b6001600160a01b0384166110835760405162461bcd60e51b81526004016103a390611b44565b33600061108f856112e2565b9050600061109c856112e2565b90506000868152602081815260408083206001600160a01b038c168452909152902054858110156110df5760405162461bcd60e51b81526004016103a390611b89565b6000878152602081815260408083206001600160a01b038d8116855292528083208985039055908a1682528120805488929061111c908490611ad7565b909155505060408051888152602081018890526001600160a01b03808b16928c821692918816917fc3d58168c5ae7397731d063d5bbf3d657854427343f4c083240f7aacaa2d0f62910160405180910390a461117c848a8a8a8a8a61132d565b505050505050505050565b6001600160a01b0384163b15610db55760405163bc197c8160e01b81526001600160a01b0385169063bc197c81906111cb9089908990889088908890600401611bf8565b6020604051808303816000875af1925050508015611206575060408051601f3d908101601f1916820190925261120391810190611c56565b60015b6112b257611212611c73565b806308c379a00361124b5750611226611c8f565b80611231575061124d565b8060405162461bcd60e51b81526004016103a391906114dd565b505b60405162461bcd60e51b815260206004820152603460248201527f455243313135353a207472616e7366657220746f206e6f6e20455243313135356044820152732932b1b2b4bb32b91034b6b83632b6b2b73a32b960611b60648201526084016103a3565b6001600160e01b0319811663bc197c8160e01b146110545760405162461bcd60e51b81526004016103a390611d19565b6040805160018082528183019092526060916000919060208083019080368337019050509050828160008151811061131c5761131c611a92565b602090810291909101015292915050565b6001600160a01b0384163b15610db55760405163f23a6e6160e01b81526001600160a01b0385169063f23a6e61906113719089908990889088908890600401611d61565b6020604051808303816000875af19250505080156113ac575060408051601f3d908101601f191682019092526113a991810190611c56565b60015b6113b857611212611c73565b6001600160e01b0319811663f23a6e6160e01b146110545760405162461bcd60e51b81526004016103a390611d19565b80356001600160a01b03811681146113ff57600080fd5b919050565b6000806040838503121561141757600080fd5b611420836113e8565b946020939093013593505050565b6001600160e01b031981168114610ad457600080fd5b60006020828403121561145657600080fd5b81356114618161142e565b9392505050565b60006020828403121561147a57600080fd5b5035919050565b60005b8381101561149c578181015183820152602001611484565b838111156114ab576000848401525b50505050565b600081518084526114c9816020860160208601611481565b601f01601f19169290920160200192915050565b60208152600061146160208301846114b1565b6000806040838503121561150357600080fd5b82359150611513602084016113e8565b90509250929050565b634e487b7160e01b600052604160045260246000fd5b601f8201601f1916810167ffffffffffffffff811182821017156115585761155861151c565b6040525050565b600067ffffffffffffffff8211156115795761157961151c565b5060051b60200190565b600082601f83011261159457600080fd5b813560206115a18261155f565b6040516115ae8282611532565b83815260059390931b85018201928281019150868411156115ce57600080fd5b8286015b848110156115e957803583529183019183016115d2565b509695505050505050565b600082601f83011261160557600080fd5b813567ffffffffffffffff81111561161f5761161f61151c565b604051611636601f8301601f191660200182611532565b81815284602083860101111561164b57600080fd5b816020850160208301376000918101602001919091529392505050565b600080600080600060a0868803121561168057600080fd5b611689866113e8565b9450611697602087016113e8565b9350604086013567ffffffffffffffff808211156116b457600080fd5b6116c089838a01611583565b945060608801359150808211156116d657600080fd5b6116e289838a01611583565b935060808801359150808211156116f857600080fd5b50611705888289016115f4565b9150509295509295909350565b6000806040838503121561172557600080fd5b823567ffffffffffffffff8082111561173d57600080fd5b818501915085601f83011261175157600080fd5b8135602061175e8261155f565b60405161176b8282611532565b83815260059390931b850182019282810191508984111561178b57600080fd5b948201945b838610156117b0576117a1866113e8565b82529482019490820190611790565b965050860135925050808211156117c657600080fd5b506117d385828601611583565b9150509250929050565b600081518084526020808501945080840160005b8381101561180d578151875295820195908201906001016117f1565b509495945050505050565b60208152600061146160208301846117dd565b6000806040838503121561183e57600080fd5b611847836113e8565b91506020830135801515811461185c57600080fd5b809150509250929050565b6000806040838503121561187a57600080fd5b50508035926020909101359150565b6000806040838503121561189c57600080fd5b6118a5836113e8565b9150611513602084016113e8565b600080600080600060a086880312156118cb57600080fd5b6118d4866113e8565b94506118e2602087016113e8565b93506040860135925060608601359150608086013567ffffffffffffffff81111561190c57600080fd5b611705888289016115f4565b60006020828403121561192a57600080fd5b611461826113e8565b600181811c9082168061194757607f821691505b60208210810361196757634e487b7160e01b600052602260045260246000fd5b50919050565b6000815161197f818560208601611481565b9290920192915050565b600080845481600182811c9150808316806119a557607f831692505b602080841082036119c457634e487b7160e01b86526022600452602486fd5b8180156119d857600181146119e957611a16565b60ff19861689528489019650611a16565b60008b81526020902060005b86811015611a0e5781548b8201529085019083016119f5565b505084890196505b505050505050611a3a611a29828661196d565b64173539b7b760d91b815260050190565b95945050505050565b6020808252602f908201527f455243313135353a2063616c6c6572206973206e6f7420746f6b656e206f776e60408201526e195c881b9bdc88185c1c1c9bdd9959608a1b606082015260800190565b634e487b7160e01b600052603260045260246000fd5b634e487b7160e01b600052601160045260246000fd5b600060018201611ad057611ad0611aa8565b5060010190565b60008219821115611aea57611aea611aa8565b500190565b600082821015611b0157611b01611aa8565b500390565b634e487b7160e01b600052601260045260246000fd5b600082611b2b57611b2b611b06565b500490565b600082611b3f57611b3f611b06565b500690565b60208082526025908201527f455243313135353a207472616e7366657220746f20746865207a65726f206164604082015264647265737360d81b606082015260800190565b6020808252602a908201527f455243313135353a20696e73756666696369656e742062616c616e636520666f60408201526939103a3930b739b332b960b11b606082015260800190565b604081526000611be660408301856117dd565b8281036020840152611a3a81856117dd565b6001600160a01b0386811682528516602082015260a060408201819052600090611c24908301866117dd565b8281036060840152611c3681866117dd565b90508281036080840152611c4a81856114b1565b98975050505050505050565b600060208284031215611c6857600080fd5b81516114618161142e565b600060033d1115611c8c5760046000803e5060005160e01c5b90565b600060443d1015611c9d5790565b6040516003193d81016004833e81513d67ffffffffffffffff8160248401118184111715611ccd57505050505090565b8285019150815181811115611ce55750505050505090565b843d8701016020828501011115611cff5750505050505090565b611d0e60208286010187611532565b509095945050505050565b60208082526028908201527f455243313135353a204552433131353552656365697665722072656a656374656040820152676420746f6b656e7360c01b606082015260800190565b6001600160a01b03868116825285166020820152604081018490526060810183905260a060808201819052600090611d9b908301846114b1565b97965050505050505056fea2646970667358221220f1ffa476c43f26a02584d33646beb25f522b97197bc6613a551657104658da4964736f6c634300080d003368747470733a2f2f676174657761792e70696e6174612e636c6f75642f697066732f516d63503659674c665379675865766336636b65676a58484450694e44586b38395a5645577a56796478423850682f",
  "linkReferences": {},
  "deployedLinkReferences": {}
}